:100000000C945C000C946E000C946E000C946E00CA
:100010000C946E000C946E000C946E000C946E00A8
:100020000C946E000C946E000C946E000C946E0098
:100030000C946E000C946E000C946E000C946E0088
:100040000C9433010C946E000C946E000C946E00B2
:100050000C946E000C946E000C946E000C946E0068
:100060000C946E000C946E00000000080002010069
:100070000003040700000000000000000000000072
:10008000250028002B0000000000240027002A0083
:10009000040404040404040402020202020203032E
:1000A0000303030301020408102040800102040836
:1000B000102001020408102011241FBECFEFD8E049
:1000C000DEBFCDBF21E0A0E0B1E001C01D92A930AC
:1000D000B207E1F70E947D010C941B030C94000011
:1000E00090E0FC01EC55FF4F249180579F4FFC019D
:1000F0008491882399F090E0880F991FFC01EA57BA
:10010000FF4FA591B491FC01E458FF4F8591949164
:100110008FB7F894EC91E22BEC938FBF089590E0A9
:10012000FC01E859FF4F2491FC01EC55FF4F34913D
:10013000FC01E057FF4FE491EE23C9F0222339F090
:10014000233001F1A8F4213019F1223029F1F0E037
:10015000EE0FFF1FE458FF4FA591B4918FB7F894AD
:10016000EC91611126C030953E233C938FBF0895DA
:100170002730A9F02830C9F0243049F78091800059
:100180008F7D03C0809180008F7780938000DFCFC8
:1001900084B58F7784BDDBCF84B58F7DFBCF809115
:1001A000B0008F778093B000D2CF8091B0008F7D68
:1001B000F9CF3E2BDACF3FB7F894809105019091AB
:1001C0000601A0910701B091080126B5A89B05C0C2
:1001D0002F3F19F00196A11DB11D3FBFBA2FA92FC6
:1001E000982F8827BC01CD01620F711D811D911DC3
:1001F00042E0660F771F881F991F4A95D1F708952F
:100200008F929F92AF92BF92CF92DF92EF92FF9226
:100210006B017C010E94DB004B015C01C114D10425
:10022000E104F104B9F00E94DB00681979098A0938
:100230009B09683E73408105910580F321E0C21A55
:10024000D108E108F10888EE880E83E0981EA11C11
:10025000B11CE4CFFF90EF90DF90CF90BF90AF90B4
:100260009F908F9008951F920F920FB60F921124B6
:100270002F933F938F939F93AF93BF9380910101EF
:1002800090910201A0910301B0910401309100010D
:1002900023E0230F2D3758F50196A11DB11D2093A2
:1002A00000018093010190930201A0930301B09398
:1002B00004018091050190910601A0910701B09180
:1002C00008010196A11DB11D8093050190930601BF
:1002D000A0930701B0930801BF91AF919F918F91B7
:1002E0003F912F910F900FBE0F901F90189526E809
:1002F000230F0296A11DB11DD2CF789484B58260E0
:1003000084BD84B5816084BD85B5826085BD85B5B9
:10031000816085BD80916E00816080936E00109237
:1003200081008091810082608093810080918100B2
:100330008160809381008091800081608093800043
:100340008091B10084608093B1008091B0008160A1
:100350008093B00080917A00846080937A008091CD
:100360007A00826080937A0080917A008160809325
:100370007A0080917A00806880937A001092C100A0
:1003800082E00E94700083E00E94700084E00E947E
:10039000700085E00E94700086E00E94700087E097
:1003A0000E94700088E00E94700089E00E94700046
:1003B000C0E0D0E061E082E00E948F0061E084E074
:1003C0000E948F0061E086E00E948F0061E088E07B
:1003D0000E948F0068EE73E080E090E00E940001D0
:1003E00060E082E00E948F0060E084E00E948F0065
:1003F00060E086E00E948F0060E088E00E948F004D
:1004000060E070E0CB010E94000161E083E00E94A7
:100410008F0061E085E00E948F0061E087E00E942C
:100420008F0061E089E00E948F0068EE73E080E059
:1004300090E00E94000160E083E00E948F0060E095
:1004400085E00E948F0060E087E00E948F0060E0FE
:1004500089E00E948F0068EE73E080E090E00E94E7
:10046000000161E082E00E948F0061E084E00E9470
:100470008F0061E086E00E948F0061E088E00E94CA
:100480008F0061E083E00E948F0061E085E00E94C0
:100490008F0061E087E00E948F0061E089E00E94A8
:1004A0008F0064EF71E080E090E00E94000160E066
:1004B00082E00E948F0060E084E00E948F0060E094
:1004C00086E00E948F0060E088E00E948F0060E07C
:1004D00083E00E948F0060E085E00E948F0060E072
:1004E00087E00E948F0060E089E00E948F0068EC46
:1004F00070E080E090E00E94000161E082E00E94F4
:100500008F0061E084E00E948F0061E086E00E943D
:100510008F0061E088E00E948F0061E083E00E942C
:100520008F0061E085E00E948F0061E087E00E941B
:100530008F0061E089E00E948F0064EF71E080E04D
:1005400090E00E94000160E082E00E948F0060E085
:1005500084E00E948F0060E086E00E948F0060E0EF
:1005600088E00E948F0060E083E00E948F0060E0DE
:1005700085E00E948F0060E087E00E948F0060E0CD
:1005800089E00E948F0068EC70E080E090E00E94BB
:10059000000161E082E00E948F0061E084E00E943F
:1005A0008F0061E086E00E948F0061E088E00E9499
:1005B0008F0061E083E00E948F0061E085E00E948F
:1005C0008F0061E087E00E948F0061E089E00E9477
:1005D0008F0064EF71E080E090E00E94000160E035
:1005E00082E00E948F0060E084E00E948F0060E063
:1005F00086E00E948F0060E088E00E948F0060E04B
:1006000083E00E948F0060E085E00E948F0060E040
:1006100087E00E948F0060E089E00E948F0068EC14
:1006200070E080E090E00E940001209709F4C2CEC3
:0A0630000E940000BFCEF894FFCF37
:00000001FF
